:020000040800F2
:1000000000000820452E0008C9220008CF22000861
:10001000D5220008DB220008E122000800000000D1
:10002000000000000000000000000000E7220008BF
:10003000F522000800000000032300081123000837
:10004000952E0008952E0008952E0008952E000884
:10005000952E0008952E0008952E0008952E000874
:10006000952E0008952E0008952E0008952E000864
:10007000952E0008952E0008952E0008952E000854
:10008000952E0008952E0008952E0008952E000844
:10009000952E0008952E0008952E0008952E000834
:1000A000952E0008952E0008952E0008952E000824
:1000B000952E0008952E0008952E0008952E000814
:1000C000952E0008952E0008952E0008952E000804
:1000D000952E0008952E0008952E0008952E0008F4
:1000E000952E0008952E0008952E0008952E0008E4
:1000F000952E0008952E0008952E0008952E0008D4
:10010000952E0008952E0008952E0008952E0008C3
:10011000952E0008952E0008952E0008952E0008B3
:10012000952E0008952E0008952E0008952E0008A3
:10013000952E0008952E0008952E0008952E000893
:10014000952E0008952E0008952E0008952E000883
:10015000952E0008952E0008952E0008952E000873
:10016000952E0008952E0008952E0008952E000863
:10017000952E0008952E0008952E0008000000001E
:10018000952E0008952E0008952E0008952E000843
:10019000952E0008952E0008952E0008952E000833
:1001A000952E0008952E0008952E0008952E000823
:1001B000952E0008952E0008952E0008952E000813
:1001C000952E0008952E000800000000952E0008CE
:1001D000952E0008952E0008952E0008952E0008F3
:1001E000952E0008952E0008952E0008952E0008E3
:0801F000952E0008952E000871
:1002000010B5054C237833B9044B13B10448AFF350
:1002100000800123237010BDE401002000000000D5
:100220006C7A00080C4B43B10C480D4910B5AFF384
:1002300000800C48036823B910BD0A48036833B92D
:100240007047094B002BF7D0BDE810401847064B0C
:10025000002BF5D0184700BF000000006C7A0008A2
:10026000E8010020E40100200000000081F00041CE
:1002700002E000BF83F0004330B54FEA41044FEA8B
:10028000430594EA050F08BF90EA020F1FBF54EA26
:10029000000C55EA020C7FEA645C7FEA655C00F0C2
:1002A000E2804FEA5454D4EB5555B8BF6D420CDD93
:1002B0002C4480EA020281EA030382EA000083EA16
:1002C000010180EA020281EA0303362D88BF30BDB6
:1002D00011F0004F4FEA01314FF4801C4CEA11310C
:1002E00002D0404261EB410113F0004F4FEA03336B
:1002F0004CEA133302D0524263EB430394EA050FF6
:1003000000F0A780A4F10104D5F1200E0DDB02FA64
:100310000EFC22FA05F2801841F1000103FA0EF2F8
:10032000801843FA05F359410EE0A5F120050EF1BE
:10033000200E012A03FA0EFC28BF4CF0020C43FAEF
:1003400005F3C01851EBE37101F0004507D54FF0FC
:10035000000EDCF1000C7EEB00006EEB0101B1F54C
:10036000801F1BD3B1F5001F0CD349085FEA300092
:100370004FEA3C0C04F101044FEA445212F5800F9D
:1003800080F09A80BCF1004F08BF5FEA500C50F13A
:10039000000041EB045141EA050130BD5FEA4C0C1D
:1003A000404141EB010111F4801FA4F10104E9D1A6
:1003B00091F0000F04BF01460020B1FA81F308BF9D
:1003C0002033A3F10B03B3F120020CDA0C3208DD69
:1003D00002F1140CC2F10C0201FA0CF021FA02F144
:1003E0000CE002F11402D8BFC2F1200C01FA02F1B4
:1003F00020FA0CFCDCBF41EA0C019040E41AA2BFD9
:1004000001EB0451294330BD6FEA04041F3C1CDAA0
:100410000C340EDC04F11404C4F1200220FA04F0C0
:1004200001FA02F340EA030021FA04F345EA03016A
:1004300030BDC4F10C04C4F1200220FA02F001FA2C
:1004400004F340EA0300294630BD21FA04F02946AE
:1004500030BD94F0000F83F4801306BF81F4801147
:100460000134013D4EE77FEA645C18BF7FEA655CBA
:1004700029D094EA050F08BF90EA020F05D054EA8C
:10048000000C04BF1946104630BD91EA030F1EBF91
:100490000021002030BD5FEA545C05D14000494195
:1004A00028BF41F0004130BD14F580043CBF01F588
:1004B000801130BD01F0004545F0FE4141F470016E
:1004C0004FF0000030BD7FEA645C1ABF1946104649
:1004D0007FEA655C1CBF0B46024650EA013406BF4A
:1004E00052EA033591EA030F41F4002130BD00BF09
:1004F00090F0000F04BF0021704730B54FF48064C6
:1005000004F132044FF000054FF0000150E700BF46
:1005100090F0000F04BF0021704730B54FF48064A5
:1005200004F1320410F0004548BF40424FF0000192
:100530003EE700BF42004FEAE2014FEA31014FEAD5
:1005400002701FBF12F07F4393F07F4F81F0605124
:10055000704792F0000F14BF93F07F4F704730B593
:100560004FF4607401F0004521F0004120E700BF26
:1005700050EA010208BF704730B54FF000050AE0AD
:1005800050EA010208BF704730B511F0004502D5AE
:10059000404261EB41014FF4806404F132045FEAB0
:1005A000915C3FF4DCAE4FF003025FEADC0C18BF55
:1005B00003325FEADC0C18BF033202EBDC02C2F14B
:1005C000200300FA03FC20FA02F001FA03FE40EADD
:1005D0000E0021FA02F11444C1E600BF70B54FF0DD
:1005E000FF0C4CF4E06C1CEA11541DBF1CEA1355BF
:1005F00094EA0C0F95EA0C0F00F0DEF82C4481EA27
:10060000030621EA4C5123EA4C5350EA013518BF46
:1006100052EA033541F4801143F4801338D0A0FB33
:1006200002CE4FF00005E1FB02E506F00042E0FBE0
:1006300003E54FF00006E1FB03569CF0000F18BFE6
:100640004EF0010EA4F1FF04B6F5007F64F540748E
:1006500004D25FEA4E0E6D4146EB060642EAC62121
:1006600041EA55514FEAC52040EA5E504FEACE2E8E
:10067000B4F1FD0C88BFBCF5E06F1ED8BEF1004F91
:1006800008BF5FEA500E50F1000041EB045170BD0D
:1006900006F0004646EA010140EA020081EA030151
:1006A000B4EB5C04C2BFD4EB0C0541EA045170BD4D
:1006B00041F480114FF0000E013C00F3AB8014F1C7
:1006C000360FDEBF002001F0004170BDC4F1000410
:1006D000203C35DA0C341BDC04F11404C4F1200591
:1006E00000FA05F320FA04F001FA05F240EA0200EC
:1006F00001F0004221F0004110EBD37021FA04F622
:1007000042EB06015EEA430E08BF20EAD37070BDDB
:10071000C4F10C04C4F1200500FA04F320FA05F03A
:1007200001FA04F240EA020001F0004110EBD3703C
:1007300041F100015EEA430E08BF20EAD37070BDAC
:10074000C4F1200500FA05F24EEA020E20FA04F385
:1007500001FA05F243EA020321FA04F001F0004134
:1007600021FA04F220EA020000EBD3705EEA430EA5
:1007700008BF20EAD37070BD94F0000F0FD101F0D4
:100780000046400041EB010111F4801F08BF013C0D
:10079000F7D041EA060195F0000F18BF704703F04B
:1007A0000046520043EB030313F4801F08BF013DD2
:1007B000F7D043EA0603704794EA0C0F0CEA13558E
:1007C00018BF95EA0C0F0CD050EA410618BF52EA48
:1007D0004306D1D181EA030101F000414FF000004E
:1007E00070BD50EA410606BF1046194652EA43065C
:1007F00019D094EA0C0F02D150EA013613D195EAD0
:100800000C0F05D152EA03361CBF104619460AD117
:1008100081EA030101F0004141F0FE4141F4700121
:100820004FF0000070BD41F0FE4141F4780170BD11
:1008300070B54FF0FF0C4CF4E06C1CEA11541DBF76
:100840001CEA135594EA0C0F95EA0C0F00F0A7F878
:10085000A4EB050481EA030E52EA03354FEA0131A5
:1008600000F088804FEA03334FF0805545EA1313B8
:1008700043EA12634FEA022245EA111545EA106580
:100880004FEA00260EF000419D4208BF964244F117
:10089000FD0404F5407402D25B084FEA3202B61A36
:1008A00065EB03055B084FEA32024FF480104FF40A
:1008B000002CB6EB020E75EB030E22BFB61A75467E
:1008C00040EA0C005B084FEA3202B6EB020E75EB11
:1008D000030E22BFB61A754640EA5C005B084FEA79
:1008E0003202B6EB020E75EB030E22BFB61A754646
:1008F00040EA9C005B084FEA3202B6EB020E75EB51
:10090000030E22BFB61A754640EADC0055EA060E11
:1009100018D04FEA051545EA16754FEA06164FEA54
:10092000C30343EA52734FEAC2025FEA1C1CC0D100
:1009300011F4801F0BD141EA00014FF000004FF08D
:10094000004CB6E711F4801F04BF01430020B4F14E
:10095000FD0C88BFBCF5E06F3FF6AFAEB5EB030C06
:1009600004BFB6EB020C5FEA500C50F1000041EB03
:10097000045170BD0EF0004E4EEA113114EB5C04D0
:10098000C2BFD4EB0C0541EA045170BD41F48011A3
:100990004FF0000E013C90E645EA060E8DE60CEAAB
:1009A000135594EA0C0F08BF95EA0C0F3FF43BAFC8
:1009B00094EA0C0F0AD150EA01347FF434AF95EA7F
:1009C0000C0F7FF425AF104619462CE795EA0C0F63
:1009D00006D152EA03353FF4FDAE1046194622E730
:1009E00050EA410618BF52EA43067FF4C5AE50EA0A
:1009F00041047FF40DAF52EA43057FF4EBAE12E7FA
:100A00004FF0FF3C06E000BF4FF0010C02E000BFDA
:100A10004FF0010C4DF804CD4FEA410C7FEA6C5CBD
:100A20004FEA430C18BF7FEA6C5C1BD001B050EA60
:100A3000410C0CBF52EA430C91EA030F02BF90EA4B
:100A4000020F0020704710F1000F91EA030F58BF0A
:100A5000994208BF90422CBFD8176FEAE37040F06C
:100A6000010070474FEA410C7FEA6C5C02D150EA0A
:100A7000013C07D14FEA430C7FEA6C5CD6D152EAC5
:100A8000033CD3D05DF8040B704700BF844610468A
:100A900062468C461946634600E000BF01B5FFF789
:100AA000B7FF002848BF10F1000F01BD4DF808ED59
:100AB000FFF7F4FF0CBF012000205DF808FB00BF2A
:100AC0004DF808EDFFF7EAFF34BF012000205DF884
:100AD00008FB00BF4DF808EDFFF7E0FF94BF0120D1
:100AE00000205DF808FB00BF4DF808EDFFF7CEFFD2
:100AF00094BF012000205DF808FB00BF4DF808ED11
:100B0000FFF7C4FF34BF012000205DF808FB00BFE1
:100B10004A0011D212F5001211D20DD56FF478737C
:100B2000B3EB62520ED44FEAC12343F0004343EAD1
:100B3000505323FA02F070474FF00000704750EA1C
:100B4000013002D14FF0FF3070474FF00000704786
:100B500003685A004CBF43F0004323F0004318449D
:100B6000704700BF61B32DE9F84F01F1FF3A90469D
:100B70000646D146002707EB090404EBD474641041
:100B8000E50071190846FFF7E3FFA245834605F12A
:100B90000800304409D0FFF7DBFFC34500F1FF3008
:100BA00005D8404509D2671CE5E7C34505D9A742EA
:100BB00002D004F1FF39DEE700210846BDE8F88FD6
:100BC00008467047012807D0022807D0044B0028A8
:100BD0000CBF184600207047024870470248704713
:100BE000C9120008CD120008D112000830B5244BFC
:100BF00083B004468D1E7BB301A92846AFF3008065
:100C000020B301992A46FFF7ADFF0146F0B1FFF787
:100C10009FFF4B68A064012B12D0002B01F1040050
:100C200020DBFFF795FF0023E06423650368002BBA
:100C30001CDBFFF78DFF00232061184603B030BD99
:100C4000002323610523184603B030BD0023236130
:100C50000923184603B030BD0A490B48091AC910C8
:100C60000191CFE70123E0642365DFE7C3F303606D
:100C7000FFF7A8FF0028206114BF00230923DCE749
:100C800000000000D8800008C87F00080368DA0769
:100C900010B5044606D49B0700F1480009D500F0C2
:100CA00051FC2368590709D51A070ED5DB0613D561
:100CB00010BD00F03FFC23685907F5D404F1D000C3
:100CC00000F048FC23681A07F0D404F5A87000F07F
:100CD00049FC2368DB06EBD404F5E870BDE810405E
:100CE00000F084BC036803B103441846704700BF9A
:100CF00009207047704700BF70B504460D4608E0F4
:100D00002B6C63612A4623692146012098470828F5
:100D100008D1296C2046FFF769FF06460028EFD06E
:100D200002F026FF0728FBD13046296CFFF7E2FFCF
:100D3000281D00F0F3FB00BF2DE9F0470C1D054610
:100D400092460FCCADF5727D03AE0FC60FCC0FC629
:100D50000FCC0FC694E80F0002ACD5F80C80D5F884
:100D6000189086E80F0000232846216C2360FFF7C7
:100D70003DFFBAF1000F074614BF0A2609267FB1CE
:100D8000A36B46F010018DE810022A46636401202F
:100D90002B46C04778BB38460DF5727DBDE8F0871D
:100DA000236C6B614FF4F07221467AA803F018F9B6
:100DB0002B697AAA294630469847889B82468DE857
:100DC0001002314663642A462B460120C04790B981
:100DD0004FF4F0727AA9204603F002F9BAF1080F35
:100DE00006D1216C2846FFF701FF09260746C6E712
:100DF000BAF1070F05D0092738460DF5727DBDE819
:100E0000F0873846216CFFF775FF03A800F086FBDA
:100E1000406C7047F0B5CB6B0B640E1D0F4604465B
:100E20000FCEF9B001AD0FC50FCE0FC50FCE0FC558
:100E300096E80F004FF0FF3685E80F00009606E0B9
:100E400023696A46214698470828054608D1109923
:100E50002046FFF7CBFE0028F2D0092079B0F0BD84
:100E60006846FFF713FF062DF7D139462046FFF7F6
:100E700043FF00BF30B4DD6BC160826119461D6461
:100E8000002230BC58E700BF70B5C66843690B64E8
:100E900026B10122FFF750FF02F06AFE03690A46FD
:100EA00004460D46014602209847072807D0082827
:100EB00003D129462046FFF71FFF02F059FE3046B6
:100EC000296CFFF717FF281D00F028FBC2681AB134
:100ED000CA6B0A6400222FE79CE700BF704700BF7F
:100EE000836813B1014601201847704700B50429F3
:100EF00007D8DFE801F00309060909000BB90F2A3A
:100F000005D902205DF804FB01205DF804FB00EB2D
:100F1000820218465368019A13605DF804FB00BF13
:100F200010B584B0002303AC0A4600941946FFF7BD
:100F3000DDFF039804B010BD00B5042907D8DFE831
:100F400001F00309060909000BB90F2A05D902208F
:100F50005DF804FB01205DF804FB019900EB8202BF
:100F60000968516018465DF804FB00BF10B584B0F5
:100F700004AC002344F8042D0A4600941946FFF7F8
:100F8000DBFF04B010BD00BFF0B5D36B1364151DBB
:100F900007460E460FCDADF50F7D17AC0FC40FCD34
:100FA0000FC40FCD0FC495E80F004FF0FF3584E854
:100FB0000F00169510E016A8FFF7D8FF314616A8C7
:100FC000B84716AA694678B9049B082098470528AF
:100FD00004460AD0092807D026996846FFF706FE7E
:100FE0006A460C210028E6D0092416A8FFF74EFE19
:100FF00020460DF50F7DF0BD2DE9F04F0D46C96C73
:101000008BB00C1D096807919146089400F0030B02
:101010001E46002B60D10902032307918DF825603D
:101020008DF824302B6DBBF1020F08BFAC6B13F0B1
:10103000010340D1019300F008030393D4F800802A
:10104000B8F1000F39D0022E43D0B4F80080678881
:101050000434AB6C27F0010A0F2148469A44FFF78D
:101060005FFF824533D828F001039A4450452CBFD6
:10107000002001207F0007F0020708F0010847EA7E
:101080000807012F3ED035D3022F1CD1236823F04F
:1010900000420292BBF1000F76D128B103990029DA
:1010A0007ED0002A00F0A680002B77DB029B013364
:1010B00004EB8304C2E700230193022E3EDDFFF719
:1010C00017FE002840D009200BB0BDE8F08F0020AB
:1010D000D0E767680834BCE7022BA3DC0B0CDAB25C
:1010E00009048DF82530022304EB820407918DF862
:1010F000243097E7BBF1000F02D0002840F0BD80FC
:1011000004349BE7BBF1000F25D1A8B194E80C0093
:10111000991C4FEAD272D6D005F1580101330691DD
:1011200000F0A380201DFFF7DDFD06AB0146284639
:1011300001F0E6FE002877D108347FE707A948468A
:1011400000F0EEFA0028BED1019B002B5CD10820F4
:101150000BB0BDE8F08F0D2148462F6AFFF7E0FE87
:101160008742E9D1AB6A9C42E6D12046FFF7F0FC0A
:101170000F2102464846FFF7F9FE48462A4600215D
:10118000FFF7F4FE07209FE70D2148462F6AFFF77F
:10119000C7FE874258D02368002B87DA043485E7DE
:1011A000029B3BB305F15803271DCDF810B0DDF8C5
:1011B0000C80DDF808A00596A3461C4602E0B24567
:1011C000B04616D038460694FFF78CFD06AB0146B4
:1011D0000022284601F094FE08F101060437002899
:1011E000EDD0029B059E43455C46DDF810B0D2D1A0
:1011F00000E05C4648460D21FFF792FE069B286200
:10120000AC626B6206205FE70F214846FFF788FE5D
:101210000E2102464846FFF7A9FE4846294A0F21FB
:10122000FFF7A4FE07204FE707460D214846FFF7CA
:1012300077FE022F28621DD12B46069A43F82C2FE9
:101240006B62AC6206203FE7AB6A9C42A3D10422EA
:101250000027A3180299A962EF622A636B632368CF
:10126000BB421DDB0123019320E748460D21FFF718
:1012700057FE2862069B6B62E3E72046FFF768FC97
:1012800004340646AC63284601F098FE00283FF47B
:101290001AAF484632460F21FFF768FE072013E7D2
:1012A0000846013004EB8000FFF752FC0F21024694
:1012B0004846FFF75BFE48462A463946FFF756FE8A
:1012C000072001E72B380008002395E6012393E669
:1012D000022391E6F0B50446C5B004290DD8DFE835
:1012E00001F053030C310F00012B4FEA124695B267
:1012F00062D17219102A40F29B80022045B0F0BDE5
:10130000002BFAD1102AF8D82368D80600F1C6803D
:1013100022AE3046019200F073F9A06B019A0023CF
:10132000012505FA03F1114203D0016846F82310A4
:1013300004300133042BF4D1A063304600F056F999
:101340000020DBE7032BD8D1150C97B2EB19102B3B
:10135000D3D823681E0700F1B58022AE304600F0D6
:1013600023F9ED00A36B4FB1043D711903EBC700E6
:1013700053F8042B41F8042F8342F9D13046A3637C
:1013800000F0F0F80020B9E7002BB6D1A56B97B2BA
:10139000201D012606FA03F1394203F1010302D0B0
:1013A000296801600435102B00F10400F2D112F419
:1013B00000503BD1A563A1E7052B9ED17719202FC3
:1013C0009BD80F2E66D92F46002D3AD12A460027EA
:1013D000002AA06B72DD00EBC202014644A800EBBC
:1013E000C6008C3851F8045B40F8045F9142F9D193
:1013F000084697B1102E324644A938BF102201EB9F
:10140000C202A2F5C4727900043A00EB810150F8DF
:10141000045B42F8045F8842F9D1012B48D00F2EBB
:10142000A16333D917B102A800F094F8002065E752
:101430000F2E3FF662AF00272268D10717D4002F86
:1014400060D02268510745D4012B4DD00F2E06D80D
:1014500022A8019300F07AF8019B002FB6D002A8D1
:10146000019300F07BF8019BC6F11002B0E722F077
:101470000101052B2160019320463BD022F003029D
:1014800040F8482B00F05AF8019BD8E722A800F05A
:1014900059F8C7E7102FCED9103FCDE723F010033E
:1014A000236004F5E870019200F0AAF8019A2FE792
:1014B0000431A16322A800F03DF8B7E7002F99D1CD
:1014C0000146AAE723F00803236004F5A87000F0A2
:1014D0006BF842E7204622F0040240F8D02B01933B
:1014E00000F03CF8019BAFE722A8019300F026F83A
:1014F000019BB9E741F0020140F8481B00F026F8D3
:10150000019B9CE7012B03D00F2E3FF65FAF9FE7B7
:1015100022A8019300F012F8019B57E700F1340173
:1015200091E838009C46A6464CF8045D90E8FF0F11
:10153000E54600BD90EC210B704700BF80EC210B0D
:10154000704700BF90EC200B704700BF80EC200B71
:10155000704700BFD0EC200B704700BFC0EC200BE1
:10156000704700BFF0EC0201F0EC0211F0EC022138
:10157000F0EC0231F0EC0241F0EC0251F0EC0261CF
:10158000F0EC0271F0EC0281F0EC0291F0EC02A1BF
:10159000F0EC02B1F0EC02C1F0EC02D1F0EC02E1AF
:1015A000F0EC02F1704700BFE0EC0201E0EC021148
:1015B000E0EC0221E0EC0231E0EC0241E0EC02510F
:1015C000E0EC0261E0EC0271E0EC0281E0EC0291FF
:1015D000E0EC02A1E0EC02B1E0EC02C1E0EC02D1EF
:1015E000E0EC02E1E0EC02F1704700BFB0FC0181E9
:1015F000B0FC0191B0FC01A1B0FC01B1704700BF8B
:10160000A0FC0181A0FC0191A0FC01A1A0FC01B102
:10161000704700BFEC4600B52DE900502DE9FF1FD3
:101620004FF000032DE90C0001A9FFF7F3FBDDF8F3
:1016300040E012B0704700BFEC4600B52DE9005005
:101640002DE9FF1F4FF000032DE90C0001A9FFF762
:101650001BFCDDF840E012B0704700BFEC4600B55F
:101660002DE900502DE9FF1F4FF000032DE90C007C
:1016700001A9FFF72BFCDDF840E012B0704700BF76
:10168000EC4600B52DE900502DE9FF1F4FF0000397
:101690002DE90C0001ABFFF7EDFBDDF840E012B0E7
:1016A000704700BFEC4600B52DE900502DE9FF1F43
:1016B0004FF000032DE90C0001AAFFF765FCDDF8EF
:1016C00040E012B0704700BF027A1AB9437A43B9BA
:1016D000B02070470368013A02721A020260180EC5
:1016E00070474268013B10B4437213680321141D14
:1016F00001721A02446002605DF8044B180E7047D4
:1017000000B585B003AA0023009219460C22FFF70A
:10171000EDFB039805B05DF804FB00BFF0E700BFE8
:101720002DE9F043064685B00F464FF000083846D5
:10173000FFF7CAFFB028044623D0050627D40023AC
:101740000DF10C09194685000D22CDF800903046A8
:10175000FFF7CCFBEDB2039BCDF80090600605F1DE
:1017600004054CBF5D1BED18002319460D223046C1
:101770000395FFF7E1FB3846FFF7A6FFB0280446C4
:10178000DBD1B8F1000F00F0958000201CE000F0E4
:10179000F003802B5DD0902B19D0A02B2CD0B02B38
:1017A0003FD0C02B6CD000F0F803D02B0BD100F051
:1017B0000702013242F40022052301213046FFF7DF
:1017C00089FD0028B3D0092005B0BDE8F08300F002
:1017D0000D030D2BF7D003AD002300F00F021946C7
:1017E00000953046FFF782FB0023009519460D2235
:1017F0003046FFF7A1FB9AE7C24302F007034FF41C
:101800007F621A41010702F47F624FF0000348BF74
:1018100042F4804219463046FFF75CFD0028D2D1E1
:1018200085E7B12857D0B22868D0B32800F095805A
:1018300000F0FC03B42BC6D000F0070201320123F4
:1018400042F4002219463046FFF744FD0028BAD181
:101850006DE73846FFF738FF24020443B4F5004F24
:10186000B1D024010023A2B219463046FFF732FD61
:101870000028A8D114F4004F18BF4FF0010856E714
:10188000C6287DD0C72800F0868000F0F803C02B62
:1018900000F09480C82800F09F80C92893D1384672
:1018A000FFF712FF020300F00F0002F47022013074
:1018B000024381E703AC43460E2241460094304682
:1018C000FFF714FB0094304643460F224146FFF7D2
:1018D00033FB404678E73846FFF7F6FE00283FF432
:1018E00072AF10F0F0037FF46EAF02461946304637
:1018F000FFF7F0FC00287FF466AF18E700230DF136
:101900000C090D221946CDF800903046FFF7EEFA8B
:101910003846FFF7D9FE02064FF002040CD5039BB0
:1019200000F07F00A040034438460393FFF7CCFE4D
:10193000030604F10704F2D4039BCDF8009000F0F5
:101940007F02A24003F501740023144419460D22BE
:1019500030460394FFF7F0FAE9E63846FFF7B4FEA5
:10196000010300F00F0001F47021421C01230A431F
:1019700030461946FFF7AEFC00287FF424AFD6E6C8
:101980003846FFF7A1FE010300F00F0001F47021BB
:10199000421C0323EBE73846FFF796FE00283FF48E
:1019A00012AF10F0F0037FF40EAF02460421304670
:1019B000FFF790FC00287FF406AFB8E600F00F02B6
:1019C0000132032342F4202219463046FFF782FCFD
:1019D00000287FF4F8AEAAE63846FFF775FE00F05F
:1019E000F00200F00F031032013343EA0232E3E663
:1019F00010B5C36C84B05A6803208DF80C00DC79F4
:101A00008DF80D4012020833084601A90192029395
:101A1000FFF786FE04B010BD08B5FFF77FFE806CAF
:101A200008BD00BF08B5FFF779FEC06CC37900EBB5
:101A30008300083008BD00BF08B502F099F800BF68
:101A400008B5FFF7F9FF00BF00000000000000002C
:101A500001F0FF01102A2BDB10F0070F08D010F85F
:101A6000013B013A8B422DD010F0070F42B3F6D163
:101A7000F0B441EA012141EA014122F007047FF07C
:101A800000070023F0E80256083C85EA010586EAD3
:101A9000010685FA47F5A3FA87F586FA47F6A5FA0F
:101AA00087F68EB9EED1F0BC01F0FF0102F007021B
:101AB00032B110F8013B013A83EA010313B1F8D1C6
:101AC0000020704701387047002D06BF35460338A7
:101AD000073815F0010F07D1013015F4807F02BFE0
:101AE000013015F4C03F0130F0BC0138704700BF31
:101AF00010F8012B11F8013B012A28BF9A42F7D0B8
:101B0000D01A7047034613F8012B002AFBD1181A8C
:101B1000013870474FEA410C7FEA6C5C02D150EA11
:101B2000013C0AD14FEA430C7FEA6C5C02D152EAD5
:101B3000033C02D14FF0000070474FF001007047A6
:101B40004FEA410212F5001215D211D56FF47873E5
:101B5000B3EB625212D94FEAC12343F0004343EA88
:101B6000505311F0004F23FA02F018BF4042704763
:101B70004FF00000704750EA013005D111F00040ED
:101B800008BF6FF0004070474FF00000704700BF83
:101B90004FEA4102B2F1E04324BFB3F5001CDCF18F
:101BA000FE5C0DD901F0004C4FEAC0024CEA5070C7
:101BB000B2F1004F40EB830008BF20F001007047F6
:101BC00011F0804F21D113F13872BCBF01F00040F9
:101BD000704741F480114FEA5252C2F11802C2F12B
:101BE000200C10FA0CF320FA02F018BF40F00100AC
:101BF0004FEAC1234FEAD32303FA0CFC40EA0C005E
:101C000023FA02F34FEA4303CCE77FEA625307D19A
:101C100050EA01331EBF4FF0FE4040F440007047D1
:101C200001F0004040F0FE4040F40000704700BF6B
:101C300080B4B5B000AFF860B9607A607B80BB68F3
:101C40007B61FB681846D437BD465DF8047B70475E
:101C500080B582B000AF78607B685A687B681B688B
:101C60009BB21946104600F049FF00BF0837BD4639
:101C700080BD80B58AB000AFF860B9607A603B6023
:101C8000FB68BA681A60FB687A685A6007F1140347
:101C900000221A605A609A60DA601A61FB681B6859
:101CA0007B613B68BB613B6BFB6100233B6207F1DF
:101CB00014031946786800F077FDFB68184628374A
:101CC000BD4680BD80B5B2B000AFF860B9607A6043
:101CD0007B80FB687A68C3F8B820FB687A88A3F831
:101CE000BC20FB68B7F8D020A3F8BE20BB683B61DE
:101CF000FB68184607F11003B822194602F070F984
:101D0000FB681846C837BD4680BD000080B586B068
:101D100000AFF860B9607A603B60FB687B61254B7F
:101D20001B681846FFF794FF07F110030A221946B3
:101D3000786903F071FE0346002B14BF01230023D2
:101D4000DAB2BB681A703B6907F1100211461846F7
:101D500003F08EFDF0EE407A7B68C3ED007A3B69BC
:101D600007F110021146184603F082FDF0EE407AAA
:101D70003B68C3ED007A3B6907F110021146184633
:101D800003F076FDF0EE407A3B6AC3ED007A3B69E2
:101D90000021184603F06CFDF0EE407A7B6AC3ED3B
:101DA000007A044B1B681846FFF752FF00BF183734
:101DB000BD4680BD0002002090B591B002AF00F09A
:101DC00090FB704A6F4B1B6B43F0010313636D4B29
:101DD0001B6B03F001037B637B6B6A4A694B1B6BD4
:101DE00043F002031363674B1B6B03F002033B6377
:101DF0003B6B644A634B1B6B43F004031363614BFF
:101E00001B6B03F00403FB62FB6A5E4A5D4B1B6BBA
:101E100043F0080313635B4B1B6B03F00803BB62C7
:101E2000BB6A584A574B1B6B43F010031363554B67
:101E30001B6B03F010037B627B6A524A514B1B6B96
:101E400043F0200313634F4B1B6B03F020033B62F3
:101E50003B6A4C4A4B4B1B6B43F040031363494BAB
:101E60001B6B03F04003FB61FB69464A454B5B6C0F
:101E700043F001035364434B5B6C03F00103BB610C
:101E8000BB69404A3F4B1B6C43F0010313643D4B5D
:101E90001B6C03F001037B617B693A4A394B1B6C75
:101EA00043F002031364374B1B6C03F002033B61E6
:101EB0003B69344A334B1B6C43F004031364314BCE
:101EC0001B6C03F00403FB60FB682E4A2D4B1B6B5D
:101ED00043F4800313632B4B1B6B03F48003BB6041
:101EE000BB68284A274B5B6C43F020035364254BA7
:101EF0005B6C03F020037B607B68082000F0CBFF65
:101F000003461C460023009301231F4A4FF48041DF
:101F10002046FFF7AEFE1D4B1C60082000F0BBFF03
:101F200003461C46002300930123174A0121204643
:101F3000FFF79FFE164B1C60082000F0ACFF034625
:101F40001C460023009301230F4A80212046FFF7FF
:101F500090FE104B1C6011E00821204601F0EBF8C8
:101F600000F0AAFF0821204601F0E5F800F0A4FFE8
:101F70000821204601F0DFF800F09EFF3C37BD4607
:101F800090BD00BF00380240000402400002002063
:101F900004020020080200202DE9F04F8FB006AFA8
:101FA00078607B68FB610123FB764FF000037B6167
:101FB0004FF000033B614FF00003FB604FF0000364
:101FC000BB6007F1100007F1140207F11B0107F1D4
:101FD0000803019307F10C03009303467868FFF7A9
:101FE00095FEFB7E1E467B691846FEF7A3FA8246E5
:101FF0008B463B691846FEF79DFA04460D46FB6882
:102000001846FEF797FA80468946BB681846FEF7E1
:1020100091FA02460B46CDE90423CDE90289CDE9C8
:10202000004552465B463146034802F005FD00BFBD
:102030002437BD46BDE8F08F907A0008B0B5A2B055
:1020400000AFFFF7B9FE124802F06AFD114B07F12D
:1020500008041D460FCD0FC495E8070084E807006B
:102060000A23BB8007F108031846FFF795FF07F125
:1020700024014FF496731422074800F059FD074BD2
:102080001B681846FFF7E4FDFA2000F009F8E9E7BD
:10209000B07A0008D07A00080C0200200402002068
:1020A00080B582B000AF7860786800F077FA00BF42
:1020B0000837BD4680BD000080B586B004AF7860AB
:1020C00039607B68012B42D13B684FF6FF72934227
:1020D0003DD1214800F0FAF90823009304231F4A58
:1020E0001F492048FFF7EEFD4FF4807303938023D0
:1020F0000293402301931C4B0093DFED1C2A9FEDBC
:102100001B2ADFED1B1A9FED191ADFED180AB7EE37
:10211000000A184B00221049174800F03FF802232C
:1021200000934FF48053154A15491648FFF780FD78
:10213000DFED0E2A9FED0D2ADFED0D1A9FED0B1A34
:10214000DFED0A0AB7EE000A0F4800F06DF800BF95
:102150000837BD4680BD00BFC40200200000024019
:10216000004400403C0400208003002000000000E8
:10217000CDCCCC3D00040240FC040020000C024009
:1021800000080040480500205805002080B500AF39
:102190004FF6FF710120FFF78FFF80BD80B58AB039
:1021A00000AF78623962FA61BB6187ED050AC7ED5D
:1021B000040A87ED031AC7ED021A87ED012AC7ED5D
:1021C000002A7B6A3A6A1A607B6AFA695A607B6AFB
:1021D000BA699A607B6A3A6BDA607B6A7A6B1A61D9
:1021E0007B6ABA6B5A617B6AFA6B9A617B6A1C33B1
:1021F000D7ED002A97ED012AD7ED021A97ED031AC1
:10220000D7ED040A97ED050A184600F00DF87B6A31
:102210004FF000025A647B6A4FF000029A647B6AB6
:1022200018462837BD4680BD80B489B000AFF8613C
:1022300087ED060AC7ED050A87ED041AC7ED031AF4
:1022400087ED022AC7ED012AFB69BA691A60FB69AA
:102250007A695A60FB693A699A60FB69FA68DA60E0
:10226000FB697A685A61FB69BA68DA61FB69002226
:102270009A61FB6918462437BD465DF8047B7047B8
:1022800080B483B000AF0F4A0E4B1B6C43F08053F9
:1022900013640C4B1B6C03F080537B607B68094A12
:1022A000084B5B6C43F480435364064B5B6C03F454
:1022B00080433B603B6800BF0C37BD465DF8047B44
:1022C000704700BF0038024080B400AFFEE780B422
:1022D00000AFFEE780B400AFFEE780B400AFFEE7DA
:1022E00080B400AFFEE780B400AF00BFBD465DF82C
:1022F000047B704780B400AF00BFBD465DF8047B2F
:10230000704780B400AF00BFBD465DF8047B7047E6
:1023100080B500AF00F022F900BF80BD80B400AFEF
:1023200001231846BD465DF8047B704780B582B036
:1023300000AF7860396001F023FC02461623136079
:102340004FF0FF3318460837BD4680BD80B582B0D8
:1023500000AF78604FF0FF317868FFF7E7FFFEE7E6
:1023600090B587B000AFF860B9607A6000237B61F8
:102370000AE0BC68631CBB60AFF300800346DBB2BD
:1023800023707B6901337B617A697B689A42F0DB59
:102390007B6818461C37BD4690BD80B586B000AF3F
:1023A000F860B9607A6000237B6109E0BB685A1C61
:1023B000BA601B781846AFF300807B6901337B61FC
:1023C0007A697B689A42F1DB7B6818461837BD460C
:1023D00080BD80B483B000AF78604FF0FF33184603
:1023E0000C37BD465DF8047B704780B483B000AF06
:1023F000786039603B684FF400525A6000231846F9
:102400000C37BD465DF8047B704780B483B000AFE5
:102410007860012318460C37BD465DF8047B704791
:1024200080B485B000AFF860B9607A6000231846C8
:102430001437BD465DF8047B7047000080B586B058
:1024400000AF7860144A154BD31A7B617B693B61FE
:10245000134B1B68002B02D1114B124A1A60104B10
:102460001A687B681A443B699A4207D901F088FBD5
:1024700002460C2313604FF0FF3309E0084B1B6842
:10248000FB60074B1A687B681344054A1360FB68BE
:1024900018461837BD4680BD000008200004000023
:1024A000800500204806002080B400AF064A064B95
:1024B000D3F8883043F47003C2F8883000BFBD46BB
:1024C0005DF8047B704700BF00ED00E080B483B08E
:1024D00000AF78607B6818460C37BD465DF8047B1A
:1024E000704780B500AF032000F02AF90F2000F0FC
:1024F00005F8FFF7C5FE0023184680BD80B582B001
:1025000000AF7860124B1A68124B1B7819464FF4D3
:102510007A73B3FBF1F3B2FBF3F3184600F037F92B
:102520000346002B01D001230EE07B680F2B0AD855
:10253000002279684FF0FF3000F00DF9064A7B6801
:102540001360002300E0012318460837BD4680BD14
:1025500000000020080000200400002080B400AF2C
:10256000064B1B781A46064B1B681344044A13603B
:1025700000BFBD465DF8047B704700BF0800002027
:102580003C06002080B400AF034B1B681846BD46D4
:102590005DF8047B704700BF3C06002080B584B026
:1025A00000AF7860FFF7EEFFB8607B68FB60FB6808
:1025B000B3F1FF3F05D0094B1B781A46FB68134463
:1025C000FB6000BFFFF7DEFF0246BB68D21AFB6864
:1025D0009A42F7D300BF1037BD4680BD08000020E7
:1025E00080B485B000AF78607B6803F00703FB60C0
:1025F0000B4BDB68BB60BA684FF6FF031340BB6050
:10260000FB681A02BB681A43064B1343BB60044ABB
:10261000BB68D36000BF1437BD465DF8047B7047CC
:1026200000ED00E00000FA0580B400AF044BDB6869
:102630001B0A03F007031846BD465DF8047B70478C
:1026400000ED00E080B483B000AF03463960FB7159
:1026500097F90730002B0ADB0D4997F907303A68E4
:10266000D2B21201D2B20B4483F800230AE0094926
:10267000FB7903F00F03043B3A68D2B21201D2B2E5
:102680000B441A7600BF0C37BD465DF8047B7047DB
:1026900000E100E000ED00E080B489B000AFF86038
:1026A000B9607A60FB6803F00703FB61FB69C3F163
:1026B0000703042B28BF0423BB61FB690433062BEB
:1026C00002D9FB69033B00E000237B610122BB6967
:1026D00002FA03F35A1EBB681A407B699A40012133
:1026E0007B6901FA03F3591E7B680B4013431846BC
:1026F0002437BD465DF8047B7047000080B582B08A
:1027000000AF78607B68013BB3F1807F01D3012388
:102710000FE00A4A7B68013B53600F214FF0FF3006
:10272000FFF790FF054B00229A60044B07221A60C6
:10273000002318460837BD4680BD00BF10E000E00A
:1027400080B582B000AF78607868FFF749FF00BFBE
:102750000837BD4680BD80B586B000AF0346B9607E
:102760007A60FB7300237B61FFF75EFF78617A6814
:10277000B9687869FFF790FF024697F90F30114664
:102780001846FFF75FFF00BF1837BD4680BD80B514
:1027900082B000AF78607868FFF7B0FF0346184654
:1027A0000837BD4680BD000080B489B000AF7860B6
:1027B00039600023FB6100237B6100233B61002320
:1027C000BB610023FB6175E10122FB6902FA03F39F
:1027D0007B613B681A687B6913403B613A697B699E
:1027E0009A4240F064813B685B6803F00303012B6D
:1027F00005D03B685B6803F00303022B30D17B6894
:102800009B68BB61FB695B00032202FA03F3DB43B5
:10281000BA691340BB613B68DA68FB695B0002FA86
:1028200003F3BA691343BB617B68BA699A607B683A
:102830005B68BB610122FB6902FA03F3DB43BA69FF
:102840001340BB613B685B681B0903F00102FB6935
:1028500002FA03F3BA691343BB617B68BA695A6031
:102860003B685B6803F00303032B17D07B68DB68CE
:10287000BB61FB695B00032202FA03F3DB43BA6925
:102880001340BB613B689A68FB695B0002FA03F383
:10289000BA691343BB617B68BA69DA603B685B68FD
:1028A00003F00303022B23D1FB69DA087B680832AB
:1028B00053F82230BB61FB6903F007039B000F2232
:1028C00002FA03F3DB43BA691340BB613B681A6940
:1028D000FB6903F007039B0002FA03F3BA69134391
:1028E000BB61FB69DA087B680832B96943F82210DA
:1028F0007B681B68BB61FB695B00032202FA03F380
:10290000DB43BA691340BB613B685B6803F00302B9
:10291000FB695B0002FA03F3BA691343BB617B688E
:10292000BA691A603B685B6803F44033002B00F01F
:10293000BE80654A644B5B6C43F480435364624BD6
:102940005B6C03F48043FB60FB68604AFB699B0897
:10295000023352F82330BB61FB6903F003039B0091
:102960000F2202FA03F3DB43BA691340BB617B68B1
:10297000574A934237D07B68564A934231D07B689E
:10298000554A93422BD07B68544A934225D07B68AA
:10299000534A93421FD07B68524A934219D07B68B6
:1029A000514A934213D07B68504A93420DD07B68C2
:1029B0004F4A934207D07B684E4A934201D1092384
:1029C00012E00A2310E008230EE007230CE00623A0
:1029D0000AE0052308E0042306E0032304E00223C1
:1029E00002E0012300E00023FA6902F003029200F2
:1029F0009340BA691343BB613449FB699B080233B6
:102A0000BA6941F823203C4B9B68BB613B69DB43BF
:102A1000BA691340BB613B685B6803F48013002B09
:102A200003D0BA693B691343BB61334ABB69936006
:102A3000314BDB68BB613B69DB43BA691340BB6167
:102A40003B685B6803F40013002B03D0BA693B6951
:102A50001343BB61284ABB69D360274B5B68BB61EA
:102A60003B69DB43BA691340BB613B685B6803F4B5
:102A70000033002B03D0BA693B691343BB611E4A84
:102A8000BB6953601C4B1B68BB613B69DB43BA6984
:102A90001340BB613B685B6803F48033002B03D0B9
:102AA000BA693B691343BB61134ABB691360FB6995
:102AB0000133FB61FB690F2B7FF686AE00BF243725
:102AC000BD465DF8047B7047003802400038014085
:102AD000000002400004024000080240000C0240D6
:102AE000001002400014024000180240001C024086
:102AF0000020024000240240003C014080B485B028
:102B000000AF78600B467B807B685B69FB607A88EE
:102B1000FB6813401A04FB68D9437B880B401A43B7
:102B20007B689A6100BF1437BD465DF8047B70472F
:102B300080B58AB002AFF860B9603B601346FB8095
:102B4000FB68D3F88030202B40F0B180BB68002BAD
:102B500002D0FB88002B01D10123A9E0FB680022F1
:102B6000C3F88420FB682222C3F88020FB6800227F
:102B70001A66FFF707FD7861FB68FA88A3F858200A
:102B8000FB68FA88A3F85A20FB689B68B3F5805F5E
:102B90000ED1FB681B69002B05D1FB6840F2FF12C8
:102BA000A3F85C202DE0FB68FF22A3F85C2028E05E
:102BB000FB689B68002B0DD1FB681B69002B04D1BF
:102BC000FB68FF22A3F85C201BE0FB687F22A3F8D0
:102BD0005C2016E0FB689B68B3F1805F0DD1FB6859
:102BE0001B69002B04D1FB687F22A3F85C2008E05E
:102BF000FB683F22A3F85C2003E0FB680022A3F8F7
:102C00005C20FB68B3F85C307B82FB689B68B3F5A3
:102C1000805F08D1FB681B69002B04D10023FB6196
:102C2000BB68BB6103E0BB68FB610023BB6132E0B2
:102C30003B6800937B6900222021F86800F03CF893
:102C40000346002B01D0032332E0FB69002B0CD19B
:102C5000FB681B685B6A9AB27B8A13409AB2BB69B5
:102C60001A80BB690233BB610CE0FB681B685B6ABE
:102C7000DAB27B8ADBB21340DAB2FB691A70FB6905
:102C80000133FB61FB68B3F85A309BB2013B9AB247
:102C9000FB68A3F85A20FB68B3F85A309BB2002BAC
:102CA000C6D1FB682022C3F88020002300E0022365
:102CB00018462037BD4680BD80B59CB000AFF86097
:102CC000B9603B601346FB71A7E0BB6FB3F1FF3FF8
:102CD00000F0A380FFF756FC02463B68D21ABB6F98
:102CE0009A4202D8BB6F002B3FD1FB681B683B6543
:102CF0003B6D53E8003FFB64FB6C23F4D0737B66B1
:102D0000FB681B681A467B6EFB65BA65B96DFA6D88
:102D100041E800237B657B6D002BE6D1FB681B68D7
:102D20000833FB63FB6B53E8003FBB63BB6B23F0D3
:102D300001033B66FB681B6808333A6EBA647B6428
:102D4000796CBA6C41E800233B643B6C002BE5D105
:102D5000FB682022DA67FB682022C3F88020FB682A
:102D6000002283F87820032368E0FB681B681B6857
:102D700003F00403002B50D0FB681B68DB6903F4ED
:102D80000063B3F5006F48D1FB681B684FF4006225
:102D90001A62FB681B68BB62BB6A53E8003F7B6238
:102DA0007B6A23F4D073FB66FB681B681A46FB6ED4
:102DB0007B633A63396B7A6B41E80023FB62FB6A01
:102DC000002BE6D1FB681B6808337B617B6953E805
:102DD000003F3B613B6923F00103BB66FB681B6856
:102DE0000833BA6E3A62FB61F9693A6A41E8002336
:102DF000BB61BB69002BE5D1FB682022DA67FB6869
:102E00002022C3F88020FB682022C3F88420FB68BE
:102E1000002283F87820032310E0FB681B68DA693E
:102E2000BB681A40BB689A420CBF01230023DBB287
:102E30001A46FB799A423FF448AF00231846703790
:102E4000BD4680BDDFF834D0002103E00C4B5B5859
:102E5000435004310B480C4B42189A42F6D30B4AAC
:102E600002E0002342F8043B094B9A42F9D3FFF7F2
:102E70001BFB01F007F8FFF7E1F87047000008209E
:102E8000F480000800000020E4010020E40100209C
:102E900044060020FEE710B5002814BF04460124B4
:102EA000204601F07BF830B900F048F908B900F08D
:102EB0005FFE8047F4E710BD1EB400F09CF81EBC16
:102EC000FEF7BAFB0378472B17D143784E2B14D16A
:102ED0008378552B11D1C378432B0ED10379432B23
:102EE0000BD143792B2B08D183792B2B05D1C079BA
:102EF00001288CBF0020012070470020704700008F
:102F00002DE9F3411E460378472B0D460246C17951
:102F100048D143784E2B45D18378552B42D1C37885
:102F2000432B3FD10379462B3CD143794F2B39D1E9
:102F30008379522B36D1002934D10123084600244D
:102F400001943BBB40BB01290ABF52F8203CA2F1CF
:102F50002003783B012908BF52F8202C1C6818BFB9
:102F600058320192236820469B689847B0B1019B74
:102F70001B68019302272B6801AAD3F81080214611
:102F800001232846C04758B1019B3360384602B040
:102F9000BDE8F081074CE5E7074CE3E70127EAE7E6
:102FA0000746F3E71046FFF78DFF80F00100C0B23F
:102FB0000023C4E7EC7A0008F47A000810B5044650
:102FC00000F032F802462046A4F12001FFF77AFF14
:102FD00060B154F8043C0133012B44F8043C03D1A4
:102FE000936844F8083C9160012010BD9368002B61
:102FF000F9D000F04BFB10B500F016F882680146DE
:103000000AB900F043FB02F120042046FFF75AFF03
:1030100040B1D369013BD36113B990698860936172
:10302000204610BD8860FBE70048704784050020FB
:1030300010B5034B0360044600F07AFB204610BD38
:103040007C7B000810B50446FFF7F2FF20460C21F8
:1030500000F071F8204610BD2DE9F041069E964221
:1030600080460F4614461D4603D1194600F02AFB40
:1030700058B9D8F80800036806961E6A22462B46FF
:103080003946B446BDE8F04160470620BDE8F0810E
:103090002DE9F14F0E4619468346174699460A9C7C
:1030A000DDF82CA0DDF830800D9D00F00BFB90B119
:1030B000002E2C602F7109DB3444A0450CBF062480
:1030C0000124AC71002001B0BDE8F08F0236F9D1C7
:1030D0000123AB71F6E7444504D15146584600F050
:1030E000F1FA88B9DBF8080003680D95CDF8308057
:1030F000CDF82CA00A94DC693A464B463146A446EA
:1031000001B0BDE8F04F60476F71DBE72DE9F0419A
:1031100004460D4616461F4600F01EFB48B9A0683F
:1031200003689C6932463B462946A446BDE8F04107
:103130006047BDE8F08100F0C0BA0000024B18689B
:10314000BFF35B8F704700BF9005002070B5002370
:10315000A0EBC006C0EBC00210F8015B941905F0AB
:103160007F02A24013432A06F4D40B6070BD30B531
:1031700000231A4610F8014B04F07F0595402B43BD
:10318000250602F10702F5D41F2A06D8640642BFBD
:103190004FF0FF3404FA02F213430B6030BD5028A5
:1031A000F7B505460E4614461F4607D1D01C20F041
:1031B000030050F8043B3B6003B0F0BD00F00F0388
:1031C0000C2B2ED8DFE803F025071D25292D2D2DEA
:1031D0002D182125290001A92046FFF7B7FF019BE3
:1031E000002BE8D005F07002102A08BF26463344B1
:1031F0002A0648BF1B68DEE701A92046FFF7B7FF94
:10320000EDE7204630F8023BEAE7204630F9023B82
:10321000E6E7204650F8043BE2E7204650F8083B3A
:10322000DEE700F0A5FC08B50346FF2B084607D0F3
:1032300003F07003202B0DD004D80BB1102B07D155
:10324000002008BD402B0DD0502BF9D0302B05D0DD
:1032500000F08EFCBDE80840FEF7EEBBBDE808407C
:10326000FEF7EEBBBDE80840FEF7D6BB70B50C46D6
:103270000146204615461E46FFF7D5FF33462A462F
:1032800001462046BDE87040FFF789BF73B50E4682
:103290001446054628B3FEF7BFFB20603178FF29AE
:1032A00006F101021ED0231D2846FFF7DFFF02466C
:1032B00013782375FF2B02F1010015D0102323751D
:1032C00001A9FFF743FF019B0344E36003786375A3
:1032D00001A90130FFF73AFF019B0344236102B0CB
:1032E00070BDDAE76060E3E70023EEE71FB503ABEC
:1032F000009300230A461946FDF7F8FD039805B030
:103300005DF804FB2DE9F04F91B00023049300F029
:103310000303012B07460C46164611D003D3022B9C
:1033200003D000F025FC02071AD531462046FEF7EF
:103330005FFB18B1092011B0BDE8F08F0820FAE753
:1033400000F0080505F0FF0885BBD1F82090104675
:103350000D21FFF7CBFF814540F04081062500E0BD
:10336000012510AB07F0080743F82C4D009300230C
:103370003D430C2219463046FDF7DEFD062D40F098
:103380003981D4F83080A76AE16AB8F1000F0CBF28
:103390004FF0010A4FF0030A15F0080500F0CE8047
:1033A000BAF1010F40F0C68000F070F90225D8E7AD
:1033B000079A13449F4280F03781DDF82080B8F1EE
:1033C000000F01D00B9B9844099F17B1781E0E9FE8
:1033D0000744B8F1000FA8D0002F00F0A18015F02D
:1033E0000803029336D0472323704E23637055237E
:1033F000A3704323E370462323714F236371522349
:10340000A3710023E3714FF0000A6FF0030B07A9CB
:103410003846FFF7ACFE08A90390FFF7A8FE079A0D
:10342000002A76D03DDD9DF83C00FF2835D000F025
:103430000703042B3FF675AF01A151F823F000BF3D
:103440009F34000823330008673400089F340008C5
:1034500097340008E379012B0CBF54F8203C04F1A9
:1034600058030493CFE702270D9909AB07FB12120B
:103470000C99FFF794FE099969B32CB104AB0022B3
:103480002046FFF73DFD30BB089F002F44D0039B33
:103490003B441F46BBE70827E6E70027E4E704278D
:1034A000E2E70D9F01326CB3029B5BBB049B06936A
:1034B0000BFB0272171F57F8041F41B106AB002225
:1034C00039442046FFF71CFD0028F4D0012181F08B
:1034D00001010029D8D0079F4FF0030AEB0727D539
:1034E000BAF1020F3FF421AF0D213046049DFFF7E2
:1034F000FDFE65622062A762C4F82C90C4F830809B
:10350000062018E70BFB02F2B958B1FA81F149091C
:10351000DFE74FF0010AB7E7BAF1000F3FF405AF5C
:103520004FF0020ADAE70027B8464FF0010AD5E764
:10353000494631E7002F23DA00F0BAF8BAF1010F5B
:1035400002D1204600F062F9002F19DA0AAA3046AB
:10355000FFF79CFE31469DF83C00FFF764FE6FF0DC
:10356000030307FB03320D9B0C90134453F82520F3
:103570000AB10135FAE70422A562E06222636363BF
:1035800010AB304643F81C4D009300231A461946F1
:10359000FDF7D2FC10AB012243F8207D00930023FD
:1035A00019463046FDF7C8FC0F213046FFF79EFE56
:1035B00010AB00F0010040EA080043F8240D00932E
:1035C00000230F2219463046FDF7B6FCBAF1020F70
:1035D00002D12046FFF7F2FC0720ACE610AA4346D2
:1035E00042F82C4D4146009230460C2245F002052F
:1035F000FDF7A2FC3046FEF715FA814600283FF49D
:1036000094AE0AAA01463046FFF740FE3146804696
:103610009DF83C00FFF707FE0F210C903046FFF7A6
:1036200065FE20F00100471E0E9B9845BFF47BAF5E
:10363000424606AB9DF83D100020FFF717FE07AB92
:1036400002469DF83D100020FFF710FE08AB024631
:103650009DF83D100020FFF709FE09A9FFF776FD50
:10366000069A0A9B13449F428046BFF4A1AEDDF840
:103670003880D9E708B5804700F07AFA024B18681D
:10368000BFF35B8F704700BF0C00002008B5FFF749
:10369000F5FFFFF7EFFF08B58047FFF7F7FF0000E2
:1036A000024B1868BFF35B8F704700BF100000200B
:1036B00008B5FFF7F5FFFFF7EEFF00F077BC7047A6
:1036C00000207047814208B50ED0406803782A2B4D
:1036D0000CD049680B782A2B08BF0131FEF708FA95
:1036E000B0FA80F0400908BD012008BD002008BDE7
:1036F0007FB5102302930368002415469E69009449
:103700006B468DF8044003941268B0479DF804306E
:1037100003F00603062B03BF009B2B60012020460D
:1037200004B070BD009890420CBF06200120704785
:1037300010B5034B03600446FFF7C1FF204610BDE0
:10374000F07B000810B50446FFF7F2FF2046082181
:10375000FFF7F1FC204610BD38B515461C46FFF7B3
:10376000B1FF20B10823E36006232560237138BD33
:103770002DE9F04105460C4616461F46FFF7A2FF0D
:1037800048B9032F07D823683246294620465B698B
:10379000BDE8F0411847BDE8F0812DE9F041069EF3
:1037A000099C9846089B9E420746154603D10799F7
:1037B000FFF788FF58B941463846FFF783FF18B135
:1037C000012326602571A3710020BDE8F081657199
:1037D000FAE70378472B17D143784E2B14D183781F
:1037E000552B11D1C378432B0ED10379432B0BD129
:1037F00043792B2B08D183792B2B05D1C079012854
:103800008CBF0020012070470020704710B504468F
:1038100048B100F03BF82046FFF7DBFF18B154F841
:10382000140CFFF727FFFFF731FF38B50246FFF70B
:10383000D0FF40B152F8184C0025104600F026F891
:1038400025B1FFF735FF04460125F6E72046FFF7CF
:1038500022FF0378472B17D143784E2B14D183785E
:10386000552B11D1C378432B0ED10379432B0BD1A8
:1038700043792B2B08D183792B2B05D1C0790128D3
:103880008CBF0020012070470020704738B50546E6
:10389000FFF7CAFB014602682846A5F12004FFF79E
:1038A000D8FF30B90AB1FFF7F1FE0C60144620468C
:1038B00038BD55F80C3C002BB4BFC3F101030133F4
:1038C00045F80C3C4B68A24203F1FF334B6028469D
:1038D0001CBF45F8102C0C606C6AFDF7FFFAE6E798
:1038E000244B1A68D0075CBF01221A60224B1A6869
:1038F000D1075CBF01221A60204B1A68D2075CBF57
:1039000001221A601E4B1A68D0075CBF01221A60A0
:103910001C4B1A68D1075CBF01221A601A4B1A6847
:10392000D2075CBF01221A60184B1A68D0075CBF2F
:1039300001221A60164B1A68D1075CBF01221A6077
:10394000144B1A68D2075CBF01221A60124B1A6826
:10395000D0075CBF01221A60104B1A68D1075CBF08
:1039600001221A600E4B1A68D2075CBF01221A604E
:10397000704700BFC0050020BC050020B80500202E
:10398000B4050020B0050020AC050020A8050020EB
:10399000A4050020A00500209C050020980500201B
:1039A00094050020244B1A68D0075CBF01221A60DE
:1039B000224B1A68D1075CBF01221A60204B1A689B
:1039C000D2075CBF01221A601E4B1A68D0075CBF89
:1039D00001221A601C4B1A68D1075CBF01221A60D1
:1039E0001A4B1A68D2075CBF01221A60184B1A687A
:1039F000D0075CBF01221A60164B1A68D1075CBF62
:103A000001221A60144B1A68D2075CBF01221A60A7
:103A1000124B1A68D0075CBF01221A60104B1A685B
:103A2000D1075CBF01221A600E4B1A68D2075CBF37
:103A300001221A60704700BFF0050020EC0500204D
:103A4000E8050020E4050020E0050020DC0500205A
:103A5000D8050020D4050020D0050020CC0500208A
:103A6000C8050020C4050020184B1A68D1075CBFA8
:103A700001221A60164B1A68D2075CBF01221A6035
:103A8000144B1A68D0075CBF01221A60124B1A68E7
:103A9000D1075CBF01221A60104B1A68D2075CBFC5
:103AA00001221A600E4B1A68D0075CBF01221A600F
:103AB0000C4B1A68D1075CBF01221A600A4B1A68C6
:103AC000D2075CBF01221A60704700BF10060020B9
:103AD0000C06002008060020040600200006002036
:103AE000FC050020F8050020F4050020184B1A689A
:103AF000D1075CBF01221A60164B1A68D2075CBF5F
:103B000001221A60144B1A68D0075CBF01221A60A8
:103B1000124B1A68D1075CBF01221A60104B1A6859
:103B2000D2075CBF01221A600E4B1A68D0075CBF37
:103B300001221A600C4B1A68D1075CBF01221A607F
:103B40000A4B1A68D2075CBF01221A60704700BF97
:103B5000300600202C060020280600202406002025
:103B6000200600201C060020180600201406002055
:103B700008B5062001F014F80120FEF7E7FB00006D
:103B8000014B1868704700BF140000208A892DE996
:103B9000F041054610070C465AD44B68002B05DC53
:103BA0000B6C002B02DC0020BDE8F081E66A002EE1
:103BB000F9D0002312F480522F682B6033D0606D4F
:103BC000A3895A0705D56368C01A636B0BB1236CD0
:103BD000C01A00230246E66A216A2846B047431C01
:103BE000A38906D129681D294BD82B4ACA40D6077C
:103BF00047D500226260D9042269226004D5421CA4
:103C000001D12B6803B96065616B2F600029CAD0B0
:103C100004F14403994202D0284600F0F5F900204F
:103C20006063BDE8F081216A01232846B047411C4A
:103C3000C6D12B68002BC3D01D2B01D0162B01D170
:103C40002F60B0E7A38943F04003A381BDE8F08172
:103C50000F69002FA7D093070E6808BF4B690F604C
:103C600018BF0023A6EB07088B60B8F1000F9ADDA0
:103C700043463A46216AA66A2846B047002807DC30
:103C8000A38943F04003A3814FF0FF30BDE8F081EA
:103C90000744A8EB0008E8E70100402038B50B69AD
:103CA00005460C46DBB118B183690BB900F060F82A
:103CB0000C4B9C4209D16C68B4F90C307BB12146A5
:103CC0002846BDE83840FFF761BF074B9C4201D151
:103CD000AC68F1E7054B9C4208BFEC68ECE70020BC
:103CE00038BD00BF387D0008587D0008187D0008E9
:103CF000014900F0A9B800BF9D3C0008002310B5A1
:103D0000044603604360836081814366C28103612E
:103D100043618361194608225C3000F06CF9054B61
:103D20006362054BA362054BE362054B2462236388
:103D300010BD00BFD94B0008FB4B0008334C0008F6
:103D4000574C000870B54A1E682555430E4605F1CC
:103D5000740100F0A7F9044640B1002180E8420058
:103D60000C30A06005F1680200F045F9204670BDF6
:103D7000836910B5044633BB8364C3640365124B87
:103D8000124A1B688262984204BF0123836100F0DB
:103D90001FF86060204600F01BF8A060204600F08D
:103DA00017F80022E06004216068FFF7A7FF0122F6
:103DB0000921A068FFF7A2FF02221221E068FFF7A5
:103DC0009DFF0123A36110BD787D0008F13C000830
:103DD000F8B51C4B1E68B369074613B93046FFF7A8
:103DE000C7FF4836B4687368013B03D5336833B105
:103DF0003668F7E7B4F90C506DB16834F4E7042184
:103E00003846FFF79FFF30600028F1D10C233B605C
:103E100004462046F8BD4FF6FF73E3810123A381DA
:103E200065662560A560656025616561A5610822FC
:103E3000294604F15C0000F0DEF86563A563A56423
:103E4000E564E6E7787D00082DE9F8438046894679
:103E500000F14804002614B93046BDE8F883A5688F
:103E60006768013F01D52468F5E7AB89012B07D9C5
:103E7000B5F90E30013303D029464046C847064302
:103E80006835EEE770B50D4E0D4CA41BA41000254F
:103E9000A54209D10B4E0C4C03F0E8FDA41BA41065
:103EA0000025A54205D170BD56F82530984701354B
:103EB000EEE756F8253098470135F2E7D88000083C
:103EC000D8800008D8800008F0800008D0F8EC0006
:103ED000704770B50E46B1F90E10002990B0144627
:103EE0001D4607DA00232B60B3891A0610D44FF45D
:103EF00080630EE001AA02F0F1FC0028F2DB029AD6
:103F000002F47042A2F500535A425A412A60EEE789
:103F100040230020236010B070BD00008B8973B572
:103F20009D0706460C4607D504F14703236023612D
:103F30000123636102B070BD01AB6A46FFF7C9FFA0
:103F400000990546304600F0ADF848B9B4F90C3098
:103F50009A05EFD423F0030343F00203A381E3E7C0
:103F60000D4BB362A389206043F08003A381009BC3
:103F70006361019B20615BB1B4F90E10304602F021
:103F8000DDFF28B1A38923F0030343F00103A381DC
:103F9000A3891D43A581CDE7F13C0008024B0146F2
:103FA000186800F07FB800BF14000020024B0146E3
:103FB000186800F029B800BF1400002082B001B9D1
:103FC00001A942B14BB113780B601278101C18BFD5
:103FD000012002B070471046FBE76FF00100F8E7E0
:103FE00010B5431E0A44914200D110BD11F8014B97
:103FF00003F8014FF7E702440346934200D17047AC
:1040000003F8011BF9E7000038B50546002945D043
:1040100051F8043C0C1F002BB8BFE41802F0C0FF9D
:104020001F4A1368104633B9636014602846BDE820
:10403000384002F0B6BFA3420CD9216862189342FF
:1040400004BF1A685B68636004BF52182260046092
:10405000ECE713465A680AB1A242FAD9196858180F
:10406000A0420BD120680144581882421960DDD16A
:10407000106852685A6001441960D7E702D90C23CE
:104080002B60D3E7206821188A4204BF1168526868
:10409000626004BF091821605C60C7E738BD00BFDB
:1040A0003406002070B5CD1C25F0030508350C2D15
:1040B00038BF0C25002D064601DBA94203D90C238D
:1040C0003360002070BD02F06BFF234A1468214664
:1040D00091B9224C23681BB9304600F029FD2060BD
:1040E0002946304600F024FD431C26D10C233360C2
:1040F000304602F056FFE4E70B685B1B1AD40B2B2B
:104100000FD90B60CD50CC18304602F04AFF04F1B5
:104110000B00231D20F00700C31A1BD05A42E250A7
:1041200070BD8C420DBF63684B686360136018BF3D
:104130000C46E9E70C464968CAE7C41C24F00304AE
:10414000A04205D0211A304600F0F2FC0130CDD05B
:104150002560D9E770BD00BF340600203806002076
:104160002DE9FF4755EC104B0D9FDDF830A0002DD9
:104170000E4691461946B8BF22462B4627F0200727
:10418000BBBF05F100431D4600232D23B8BF1446D5
:10419000462F0B7004D0452F00D10136022100E0DC
:1041A000032103AB019302AB00933246534645EC27
:1041B000104B01F0C5FD472F804602D119F0010FC9
:1041C00026D0462F08EB060911D198F80030302B85
:1041D0000AD10022002320462946FCF767FC18B9C3
:1041E000C6F10106CAF80060DAF8003099440022EE
:1041F000002320462946FCF759FC38B93022039B9E
:10420000994505D9591C03911A70F8E7CDF80C901F
:10421000039B0E9AA3EB08034046136004B0BDE86D
:10422000F087F7B503460029B8BF494203F8022BCF
:10423000B4BF2D222B220929427020DD0DF1070287
:1042400017460A2691FBF6F506FB15113031092DAC
:1042500002F8011C02F1FF34294609DC3031023A30
:1042600004F8011CBA421C4604D3201A03B0F0BD66
:104270002246E7E712F8011B03F8011BF2E73022A0
:104280001C46114404F8022B5970EEE72DE9F04F5B
:104290008DB00C46DDF8588016461F46054602F0E4
:1042A0005FFE036804931846FDF72CFC00230A9375
:1042B000D8F800300590073323F0070303F1080214
:1042C00094F818A0D4F800B0C8F80020D3E900236F
:1042D000C4E91223D4E9128929F000430793CDF8E9
:1042E00018804FF0FF32A54BDDE90601FDF712FC07
:1042F000002840F0FB814FF0FF32A04BDDE90601C2
:10430000FCF7E8FB002840F0F18100220023404642
:104310004946FCF7D5FB10B12D2384F84330984B68
:10432000984ABAF1470F8CBF9046984603232BF06A
:104330000402236122604FF00009009733460BAA64
:104340002146284600F0E2F9013040F093804FF01A
:10435000FF300DB0BDE8F08F61684B1C4BF48062FC
:104360003FD106236360002303930AAB029309AB9A
:10437000009349EC108B0DF123032260CDF804A0CB
:1043800061682846FFF7ECFE0AF0DF03472B804602
:1043900009D1099BD81C02DB6268934257DDAAF160
:1043A000020A5FFA8AFABAF1650F099934D801391D
:1043B000524604F150000991FFF733FF0A9A83181F
:1043C000012A8146236102DC2268D10701D501332D
:1043D00023619DF82330002BAFD02D2384F8433088
:1043E000ABE7BAF1670F02D0BAF1470FBBD189B181
:1043F000002303930AAB029309AB009349EC108BA3
:104400002260CDF804A00DF123032846FFF7A8FE93
:104410008046BEE70123A5E7BAF1660F19D100294E
:1044200063680CDD216113B92268D20702D501331C
:104430000B442361099BA3654FF00009C9E713B939
:104440002268D00701D50233F3E70123F1E74FF0EB
:10445000670A099B0A9A934205DB22682361D10708
:10446000E8D50133E5E7002BD4BFC3F102030123F4
:104470001344DEE723685A0507D4236942463146D0
:104480002846B84701302BD161E7BAF1650F40F2F9
:10449000E28000220023D4E91201FCF707FB002888
:1044A0003CD00123384A31462846B84701303FF412
:1044B0004EAF0A9B099A9A4202DB2368D8070FD5B0
:1044C000059B049A31462846B84701303FF43FAF78
:1044D0004FF0000804F11A090A9B013B984512DBD2
:1044E00023689B0709D54FF0000804F11909E36818
:1044F0000B9A9B1A9845C0F2EE80E0680B9B98429D
:10450000B8BF184625E701234A4631462846B84732
:1045100001303FF41CAF08F10108DDE7099B002BD7
:1045200034DC0123184A31462846B84701303FF4AD
:104530000EAF099B23B90A9B13B92368D907CFD5BE
:10454000059B049A31462846B84701303FF4FFAE38
:104550004FF0000904F11A0A099B5B42994501DBFF
:104560000A9B8BE70123524631462846B847013063
:104570003FF4EDAE09F10109EEE700BFFFFFEF7F69
:10458000867D00088A7D0008967D00080A9AA36D42
:104590009A42A8BF1A46002A914638DC04F11A0351
:1045A0004FF0000B29EAE9790693D4F858A0AAEB5A
:1045B00009039B4533DB0A9B099A9A423ADB23683D
:1045C000DA0737D40A9B0999A3EB0A02A3EB010986
:1045D0009145A8BF9146B9F1000F33DC4FF00008B8
:1045E00029EAE97904F11A0A099A0A9B9B1AA3EBB2
:1045F00009039845BFF674AF012352463146284659
:10460000B84701303FF4A3AE08F10108ECE71346C8
:10461000314642462846B8470130BFD197E60123CC
:10462000069A31462846B84701303FF490AE0BF168
:10463000010BBAE7059B049A31462846B84701307A
:10464000C0D184E64B4608EB0A0231462846B847FB
:104650000130C3D17BE60A9A012A01DCDB0737D59A
:104660000123424631462846B84701303FF46FAE39
:10467000059B049A31462846B84701303FF467AE9F
:1046800000220023D4E91201FCF710FA58B14FF0D0
:10469000000804F11A0A0A9B013B98450DDB4B46C2
:1046A00004F15002EBE60A9B08F10102013B31469E
:1046B0002846B8470130F2D149E601235246314637
:1046C0002846B84701303FF442AE08F10108E2E75E
:1046D00001234246EBE701234A4631462846B847C4
:1046E00001303FF434AE08F1010800E742464B4682
:1046F00040464946FDF70EFA00283FF42DAE014B27
:10470000014A0EE68E7D0008927D00082DE9F047F3
:1047100091461F468A680B69DDF820809342B8BF36
:104720001346C9F8003091F8432006460C4612B1F2
:104730000133C9F800302368990642BFD9F8003028
:104740000233C9F80030256815F0060507D104F1D9
:10475000190AE368D9F800209B1A9D4229DB94F8D6
:1047600043302268003318BF012392062ED404F18F
:10477000430239463046C047013021D02368E568FE
:10478000D9F8002003F00603042B08BFAD1AA36874
:1047900022690CBF25EAE57500259342C4BF9B1A28
:1047A000ED184FF000091A344D451BD10020BDE82B
:1047B000F0870123524639463046C047013003D1C5
:1047C0004FF0FF30BDE8F0870135C2E7E1185A1C11
:1047D000302081F84300224494F8451082F84310B9
:1047E0000233C4E70123224639463046C047013030
:1047F000E6D009F10109D7E72DE9F04317460A7E13
:1048000085B06E2A984606460C460C9B01F1430E75
:1048100000F0BC801AD8632A2ED00AD8002A00F0F3
:10482000C880582A00F08A8004F1420584F84220AA
:104830002AE0642A01D0692AF6D121681A6811F0A9
:10484000800F23D0111D1960136827E0732A00F030
:10485000B48008D86F2A2AD0702AE5D10A6842F0BD
:1048600020020A6003E0752A21D0782ADCD1782260
:1048700084F845206E4964E01A6801F14205111D73
:104880001960136884F842300123A3E011F0400F4F
:1048900002F104011960D7D0B2F90030002B03DA1D
:1048A0002D225B4284F8432062490A2217E02068E7
:1048B000196810F0800F03D0081D18600B6806E01F
:1048C00010F0400F01F104001860F7D00B8859492F
:1048D0006F2A14BF0A220822002084F8430065686A
:1048E000A560002DC0F29C80206820F004002060AC
:1048F000002B3FD1002D40F095807546082A0BD142
:104900002368DA0708D5236962689A42DEBF30233C
:1049100005F8013C05F1FF35AEEB05032361CDF849
:1049200000803B4603AA21463046FFF7EFFE0130E8
:1049300055D14FF0FF3005B0BDE8F08381F8452038
:104940003C492268186812F0800F00F104051D60D0
:1049500001D0036802E05506FBD50388D00744BFA9
:1049600042F0200222601BB9226822F0200222605D
:104970001022B1E77546B3FBF2F002FB1033CB5CBB
:1049800005F8013D03460028F5D1B7E708681A6825
:10499000496910F0800F04D0101D18601368196069
:1049A00007E010F0400F02F1040018601368F6D021
:1049B0001980002323617546B1E71A68111D19603B
:1049C0001568626800212846FDF742F808B1401BCF
:1049D000606063682361002384F843309FE72369A4
:1049E0002A4639463046C0470130A2D023689B078B
:1049F00007D5002504F11909E368039A9B1A9D4223
:104A000005DBE068039B9842B8BF184693E7012393
:104A10004A4639463046C04701308AD00135EBE777
:104A2000002BA7D10B7884F8423004F1420565E7EA
:104A3000A97D0008987D00080FB40A4B13B51C68C7
:104A400024B1A36913B92046FFF792F905AB049A84
:104A5000A1680193204602F0C9FE02B0BDE81040F3
:104A600004B070471400002070B50E46054618B11A
:104A700083690BB9FFF77CF9AB69AC6813B92846B9
:104A8000FFF776F9234B9C4217D16C68A3891B076B
:104A90001DD52369DBB1013EA36816F8011F013B58
:104AA000A360E9B9002B2EDA22460A21284600F03D
:104AB000C9FF013011D00A2070BD174B9C4201D1B3
:104AC000AC68E3E7154B9C4208BFEC68DEE7214683
:104AD000284601F029F80028DDD04FF0FF3070BDE6
:104AE000002B04DAA269934206DB0A2904D023686A
:104AF0005A1C22601970CFE72246284600F0A2FF18
:104B00000130C9D1E9E723680A205A1C22601870D5
:104B100070BD00BF387D0008587D0008187D000872
:104B2000024B01461868FFF79FBF00BF140000202A
:104B300038B5064C0023054608462360FDF77EFC89
:104B4000431C02D1236803B12B6038BD400600200E
:104B50001F2938B504460D4604D9162303604FF0CB
:104B6000FF3038BD426C12B152F821304BB92046AB
:104B700000F030F82A4601462046BDE8384000F0F3
:104B800017B8012B0AD0591C03D11623036001204A
:104B900038BD002442F8254028469847002038BDFB
:104BA000024B01461868FFF7D3BF00BF1400002076
:104BB00038B5074C00230546084611462360FDF72B
:104BC000B5FB431C02D1236803B12B6038BD00BF85
:104BD00040060020FDF7A2BB10B50C46B1F90E103F
:104BE00002F01AFF0028ABBF636DA3891B1823F4E2
:104BF0008053ACBF6365A38110BD2DE9F0411F4612
:104C00008B89DB0505460C46164605D50223002296
:104C1000B1F90E1002F0B2F9A389B4F90E1023F421
:104C20008053A38132463B462846BDE8F04100F060
:104C300069BF10B50C46B1F90E1002F09FF9431C84
:104C4000A38915BF606523F4805343F48053A38187
:104C500018BFA38110BDB1F90E1000F0D3BF70B51D
:104C600004460D4645EC104B164602F05BFC51EC39
:104C7000100B7EB1C5F30A53C3F16B03002B09DDA2
:104C80001B0503F17F55002405F5401522462B46F0
:104C9000FBF7A4FC70BD00002DE9F04F9FB09846D3
:104CA0000490002340460C4615921A9302F056F9E0
:104CB00007460068FCF726FF4FF0000A05464FF054
:104CC000000B1994199B1A780D2A33D8092A37D268
:104CD000002A3FD000230993199E3378302B40F0EF
:104CE00003817378582B01D0782B6BD1099B0193EA
:104CF0001AAB0093CDF808801BABAD4A049819A9F4
:104D000001F048FE10F00704054605D0062C2BD113
:104D10000136002319960993159B002B40F09085CE
:104D2000099BE3B152460BF1004343EC102B1FB03B
:104D3000BDE8F08F2B2A06D02D2A13D0202AC9D106
:104D400001331993BEE7002209925A1C19925B782D
:104D5000002BC1D1159B1994002B40F06F85524652
:104D60005B46E2E70122EFE71A9A3AB135211CA827
:104D700002F0C9FC1A99049802F048F9013C042C8D
:104D800008D8DFE804F00C03171A0C00DDF870A057
:104D9000DDF874B02907BFD54BF0004BBCE71D9B75
:104DA0001B9ADDF870A023F4801302F2334243EA29
:104DB000025BEFE7DFF804B2ECE76FF0004B4FF077
:104DC000FF3AE7E7199B5A1C19925B78302BF9D010
:104DD000002BA1D001234FF000090893199B0A93DF
:104DE000CDF81C90CDF818900A2219980678A6F1F3
:104DF0003003D9B2092979D92A46396802F024FE4C
:104E0000002800F082800020069D334602460146BD
:104E1000652B02D0452B40F0E88025B910B9089BDE
:104E2000002B97D00025199C631C199363782B2BBA
:104E300000F0C8802D2B00F0CB8000260596A3F152
:104E40003006092E00F2D080302B00F0C380A3F191
:104E50003106082E00F2C980A3F1300E199B4FF0E5
:104E60000A0C1F46199B5E1C19965B78A3F130084B
:104E7000B8F1090F40F2B380F61B082E44F61F6804
:104E800002DCF045A8BFF046059E0EB1C8F100084F
:104E9000002D40F0D08000287FF43EAF089A002A11
:104EA0007FF43AAF00297FF455AF4E2B00F0A68077
:104EB00000F39E80492B7FF44DAF3E4919A801F0C5
:104EC00099FF00283FF446AF199B3B49013B19A8C5
:104ED000199301F08FFF10B9199B01331993DFF873
:104EE000DCB04FF0000A17E7002374E706990829A1
:104EF000DDBF079902FB0133079302FB0939069BCB
:104F000001300133069319906FE7199B5A191992D2
:104F1000069A5B5D002A48D11046302B2AD0A3F1B7
:104F20003102082A00F29184199A0A92024600205E
:104F30000546303B00F1010111D00A4400EB050C9D
:104F400029460A2661451BD12844082800F101059D
:104F500025DC07980A2101FB003307930021199BE8
:104F6000581C19905B780846A3F130010929E0D953
:104F700001214DE7199B5A1C199201305B78CCE74F
:104F8000013101F1FF3EBEF1080F03DC079F7743BB
:104F90000797D7E71029D8BF06FB09F9D2E7102DEC
:104FA000DCBF0A2101FB0939D8E70246069DDBE791
:104FB000BC7D00088B7D0008137E00080000F07F98
:104FC00001212BE700230593A31C1993A37836E74F
:104FD0000123F8E7199B5E1C19965B7834E70CFBFC
:104FE0000E3EAEF1300E3DE719944FF000084FE74A
:104FF000692B3FF462AF6E2B7FF4ACAE884919A8E1
:1050000001F0F8FE00283FF4A5AE199B1B78282B71
:105010000ED11CAA834919A801F0FFFE052807D16B
:105020001D9BDDF870A043F0FF4B4BF4E00B73E6E3
:10503000DFF800B255E7069B0798002B08BF2B4608
:10504000102D2C46A8EB0208A8BF10240693FBF7EE
:105050004FFA092C82468B4613DD734B03EBC403D6
:1050600053E91223FBF7BAFA064648460F46FBF708
:105070003FFA02460B4630463946FBF7FDF88246BA
:105080008B460F2D36DCB8F1000F3FF445AE24DD22
:10509000B8F1160F0BDC644D05EBC808D8E9000128
:1050A00052465B46FBF79AFA82468B4634E6C5F1D8
:1050B000250398451EDC5C4CC5F10F0504EBC501CA
:1050C000A8EB050552465B46D1E9000104EBC50497
:1050D000FBF784FAD4E90023E4E718F1160F09DBA3
:1050E000514DA5EBC808D8E9002350465946FBF7B7
:1050F0009FFBD9E72C1B4444002C70DD14F00F03F8
:105100000AD0494901EBC30152465B46D1E900018F
:10511000FBF764FA82468B4634F00F0450D0B4F5A6
:105120009A7F23DD0024254607940694049ADFF82D
:1051300008B1222313604FF0000A079B002B3FF4B5
:10514000EBAD1A99049801F061FF0699049801F0FB
:105150005DFF2946049801F059FF0799049801F072
:1051600055FF2146049801F051FFD5E52F4E00234D
:1051700024115046594699463746012C23DC0BB181
:1051800082468B46ABF1547B07EBC90752465B4620
:10519000D7E90001FBF722FA21F000438B460A46CB
:1051A0001B0D23491B058B428246BBD8A1F58011FC
:1051B0008B4286BFDFF884B04FF0FF3A02F1547B98
:1051C000002305936DE0E20704D5D6E90023FBF741
:1051D00005FA012309F1010964100836CDE7EFD083
:1051E000644214F00F020AD00F4B03EBC203504687
:1051F0005946D3E90023FBF71BFB82468B4624115B
:10520000DED01F2C1CDD0024254607940694049A4A
:1052100022234FF0000A4FF0000B13608DE700BF10
:10522000937D0008D07D0008487E0008207E00089D
:105230000000A07C0000F8FF0000F07FFFFFEF7F80
:1052400014F0100318BF6A23A04E05935046594628
:105250000023002C00F306810BB182468B46059B90
:10526000BBB1CBF30A53C3F16B03002B594610DDDE
:105270001F2B40F30181342BDEBF203B4FF0FF3268
:1052800002FA03F34FF0000ACCBF4FF05C7B03EA55
:10529000010B0022002350465946FBF707FC00286B
:1052A000B1D1079B0093069A0A9904982B4601F006
:1052B000FFFE079000283FF435AFB8F1000FC8F1AA
:1052C0000003A8BF00230E93002428EAE8730F937D
:1052D0002546079B0498596801F064FE0690002853
:1052E0003FF424AF079B1A69023203F10C019200CC
:1052F0000C30FEF775FE1CAA1BA94BEC10AB0498F2
:10530000CDE90AAB02F084F91A9000283FF40EAF01
:105310000121049801F058FF054600283FF406AF2C
:105320001B9E1C9A002EABBF0E9B0F9B0F9FDDF8A0
:105330003880ACBF03EB06089F1B059BF61A16448A
:10534000634B013E9E42C2F1360280F2A8809B1B55
:105350001F2BA2EB03024FF0010900F3948009FA1E
:1053600003F31493002608EB0209059BC845174474
:105370001F444346A8BF4B46BB42A8BF3B46002B39
:10538000C2BFA9EB0309FF1AA8EB03080E9BBBB130
:1053900029461A46049801F0ADFF054600283FF45F
:1053A000C5AE01461A9A049801F017FF089000282C
:1053B0003FF4BCAE1A99049801F028FE089B1A939A
:1053C000B9F1000F6FDC0F9B002B75D1002F08DDAA
:1053D0003A460699049801F0DBFF069000283FF456
:1053E000A5AEB8F1000F08DD29464246049801F049
:1053F000CFFF054600283FF499AE069A1A99049803
:1054000002F031F8044600283FF490AEC3680893D8
:105410000023C360294602F00CF800285ADA089BE2
:10542000E3B9BAF1000F19D1CBF31303B3B92BF0E1
:1054300000431B0D1B05B3F1D66F0FD9636913B978
:105440002369012B0ADD21460122049801F0A0FF07
:105450002946044601F0EDFF00286CDC059B002B7B
:1054600076D16EE6E20704D5D6E90023FBF7B6F85D
:10547000012364100836ECE64FF0FF3202FA03F322
:1054800003EA0A0A05E7C6F17F4606F57F0606F538
:105490007B46E23609FA06F6CDF8509063E7012321
:1054A000002614935FE74A461A99049801F070FFAA
:1054B0001A90002887D139E60F9A0699049801F0CE
:1054C00019FF0690002881D130E600BFE87D000872
:1054D00002FCFFFF40F08680089ACBF3130332B33F
:1054E000AD4A9342594652D1059B5046D3B1AB4A7F
:1054F0000A40B2F1D46F4FF0FF3716D8120DC2F147
:105500006B0307FA03F3834241D1A54A914202D1CA
:1055100001333FF40BAEA14B0B4003F5801B4FF062
:10552000000A9BE74FF0FF33EDE73B46EBE773BB29
:10553000BAF1000F2BD12BF00043059A1B0D1B0570
:10554000E2B1B3F1D66F19DCB3F15C7F7FF75FAEE8
:10555000944B0D9300230C9350465946DDE90C23E0
:10556000FBF73CF882468B4600297FF4EAAD002821
:105570007FF4E7AD049A22231360E2E5A3F58013DC
:105580006FEA135B6FEA0B5B4FF0FF3A66E79EB181
:1055900016EA0B0F3FF462AF089B059A5046594636
:1055A00073B1FFF75CFB02460B46DDE90A01FAF72F
:1055B00063FE82468B4651E7149B13EA0A0FE9E724
:1055C000FFF74DFB02460B46DDE90A01FAF752FEF2
:1055D0000022002382468B46FBF768FA00287FF4FE
:1055E00016AE3BE72946204602F061F857EC106BF7
:1055F00000224FF0804310EE100A3946FBF76AFA9A
:10560000002874D0089B002B46D0DFF89C914FF007
:105610000008654F0026614B0BEA03031493149AAC
:10562000624B9A4240F0CA80DDE90A23ABF1547B19
:105630004BEC10ABCDE90C2301F074FF404653EC6A
:10564000102B4946FAF7CAFF52465B46FAF714FE9A
:10565000524A574B0A409A4282465CD90D9A03F14E
:1056600054739A4203D10C9B01333FF45FADDFF8D2
:1056700030B14FF0FF3A1A99049801F0C7FC06992F
:10568000049801F0C3FC2946049801F0BFFC2146B0
:10569000049801F0BBFC1CE6BAF1000F18D1CBF363
:1056A0001303E3B90022404B30463946FBF708FAB2
:1056B000D0B93046394600223E4BFAF78FFF0646F6
:1056C0000F4607F1004316961793DDE91689A2E706
:1056D000BAF1010F03D1BBF1000F3FF498AD4FF0C9
:1056E0000008DFF8D49094E70026324FE9E7314B09
:1056F000304639460022FAF771FF089B06460F46EE
:1057000033B901F1004310901193DDE9108982E76C
:10571000CDE91067F9E701F1547B059B002BAAD175
:105720002BF000431B0D149A1B059A42D846A2D1B8
:1057300039463046FCF704FAFAF7EAFE0B46024611
:1057400039463046FAF796FD089B06460F4633B9B0
:10575000BAF1000F03D1CBF31303002B68D00AA3D7
:10576000D3E9002330463946FBF7AAF900287FF435
:10577000E8AC07A3D3E9002330463946FBF7BEF96E
:1057800000283FF478AFDCE49535A094FFFFDF3FBD
:1057900035E5AF350000E03FFFFF0F000000F07F70
:1057A000FFFFEF7F000050390000F03F0000E07F76
:1057B000FFFF9F7C0000E03F0000F0BF059B1BB394
:1057C000149BB3F1D46F1FD825A3D3E9002330462F
:1057D0003946FBF77FF990B139463046FBF798F927
:1057E000002808BF0120FAF783FE089B06460F46F3
:1057F000DBB901F1004312901393DDE91289149A89
:1058000009F1D663A3EB02099DED0A0B01F08AFEB4
:10581000404653EC102B4946FAF7E0FEDDE90A2337
:10582000FAF72AFD82468B4677E7CDE91267E4E76F
:105830000DA3D3E90023FBF743F9A1E70023099364
:10584000159A199B1360FFF76BBA652B4FF0000296
:105850003FF4B6AB15460121FFF7DCBAAFF3008089
:105860000000C0FFFFFFDF419535A094FFFFCF3F51
:105870002DE97043244E254A3468236A2DED028BAE
:10588000002B08BF13460A4601462046FFF704FADC
:1058900055EC104B10EE102A2B4610EE100A29463C
:1058A000FCF738F930B1BDEC028B0020BDE8704345
:1058B00002F0C4B820462946FCF76AF908EE100A3F
:1058C000DFED137AB0EEC87AB4EE677AF1EE10FA33
:1058D00014DD25F000494FF0FF320E4B20464946BB
:1058E000FCF718F938B94FF0FF320A4B2046494609
:1058F000FBF7F0F810B1336822221A60B0EE480AC4
:10590000BDEC028BBDE870831400002078000020FD
:10591000FFFF7F7FFFFFEF7F2DE9F84F804689462D
:1059200092461F468B465D460A9815F8014BFEF7D6
:10593000CDFA2044467816F008060BD12D2C0BD159
:105940002C7801260BF1020567B1102F14D1302CF1
:105950000AD011E0AB46E6E72B2C04BF2C780BF104
:105960000205F1E7302C27D12B7803F0DF03582B09
:105970004BD16C7810270235002E0CBF6FF0004120
:105980004FF000410022B1FBF7FE104607FB1E1C42
:10599000A4F13003092B11D81C46A7421DDD531C6E
:1059A00007D0864516D301D1A44513DB00FB074081
:1059B000012215F8014BEBE70A27DDE7A4F14103CB
:1059C000192B01D8373CE8E7A4F16103192B04D85F
:1059D000573CE2E74FF0FF32EBE7531C08D122239C
:1059E000C8F800300846BAF1000F07D1BDE8F88FBB
:1059F00006B14042BAF1000F0CD022B1013DCAF805
:105A00000050BDE8F88F4D46F9E73024002FB3D1A0
:105A10000827B1E7BDE8F88F084B37B51C68084D7B
:105A2000236A002B08BF2B46009313460A46014603
:105A30002046FFF771FF03B030BD00BF1400002007
:105A400078000020F8B50E461446054618B1836963
:105A50000BB9FEF78DF9214B9C422AD16C68A369E2
:105A6000A360A3891A072ED5236963B3236920682D
:105A7000C01A6369F6B29842374604DB21462846CD
:105A8000FEF70CF928BBA368013BA36023685A1CEE
:105A900022601E7063690130984204D0A389DB073D
:105AA00019D50A2E17D121462846FEF7F7F890B1EE
:105AB0000FE00B4B9C4201D1AC68D0E7094B9C42F4
:105AC00008BFEC68CBE72146284600F02DF80028F7
:105AD000CCD04FF0FF373846F8BD00BF387D000806
